:0A0000000C9445000C9400000C94D1
:10000A0000000C9400000C9400000C94B6000C94B0
:10001A0000000C9400000C9400000C9400000C9456
:10002A0000000C9472000C9400000C9400000C94D4
:10003A0000000C9400000C9400000C9400000C9436
:10004A0000000C9400000C9400001027E8036400E0
:10005A000A00010000100001100001000000000069
:10006A0066726571656E63792069733A202564004A
:10007A0080C0040004006600020074027A000000D6
:10008A00F894EE27ECBBF1E0FBBFEBBFE5BF8DE0D8
:10009A00A2E0BB27ED938A95E9F780E098E0A0E615
:1000AA00ED930197E9F7ECE7F0E0859195910097D8
:1000BA0061F0A591B59105901590BF01F0010590E9
:1000CA000D920197E1F7FB01F0CFEFE5EDBFE8E014
:1000DA00EEBFC0E6D2E00C94C2000A921A926A936A
:1000EA007A938A939A93AA93BA93EA93FA93EFB775
:1000FA00EA93E4B5F0E0DF01E0E0F1E00E942D05CB
:10010A000E9410050E94EA03D3010E9415050E946D
:10011A004F050E941D04AFE6B2E183E090E40E941D
:10012A006D04E0936002F09361026093620270933F
:10013A006302A0E0B0E08AE798E40E94BB040E9450
:10014A00B3032F0166247724E991EFBFF991E9916E
:10015A00B991A99199918991799169911990099087
:10016A001895EA93FA93EFB7EA93F30131963F01B0
:10017A00E991EFBFF991E9911895E0E0E7BBE1E079
:10018A00E8BBEFEFE4BBE0E0E5BBE7E0E3BFE0E0BC
:10019A00E2BFECBFE2BDE2E0E5BDE0E0E4BDE3BD05
:1001AA00E1E4E9BFA0E17AD07894E4E6F2E0FA93D8
:1001BA00EA93EAE6F0E0FA93EA93F2010E94100564
:1001CA000E94480584E00E94F4022896E0E0EA933F
:1001DA00A0E025D0A4E6B2E050D0E7CFFFCFAA93A3
:1001EA00E5B3EF70AE2FE881E07FEA2BE5BB82E052
:1001FA008A95F1F7AA9A82E08A95F1F7AA9882E09D
:10020A008A95F1F776C0AA93A881E9DFE881E29599
:10021A00E883A881E4DF81E18A95F1F76AC0AA93AD
:10022A00E881F0E0EC58FD4FE081A981AE0FEBDFE9
:10023A009980888022960895A2E00E944103ACE04A
:10024A00E2DFA1E00E944103E0E08E2E9E2E089597
:10025A00AA93A881AA3011F09B1448F0E0E0EA932F
:10026A008394A82DDCDFA881AA3009F442C09394B4
:10027A00A89AA881C8DFA8983CC0BA93AA931A93EF
:10028A00A981BA81ED91A983BA831E2FE03019F0B2
:10029A00A12FDEDFF5CF188123960895AA93E4B340
:1002AA00E06FE4BBA29AA09AA19AAA98A898A998E2
:1002BA00B880E881E058E0937602E881E054E09360
:1002CA007702A4E1B0E00E947A030E9447030E94E9
:1002DA0047030E944703A0E282DF81E28A95F1F791
:1002EA00A8E291DFA4E08FDFA5E88DDFA6E08BDF2F
:1002FA00A3DF21960895BA93AA931A930A93AA811F
:10030A00BB8112960E944005309759F1AA81BB81A0
:10031A0014960E9440058F01309761F00230E0E0A8
:10032A001E0798F0F80131978F01AA81BB811496B4
:10033A00ED93FC93AA81BB811296ED91FD913196C2
:10034A00FE93EE933197AC81A083AA81BB810E9470
:10035A004005FF232AF0ED91FD913196FE93EE932D
:10036A0006C0AA81BB81EFEFFFEFED93FC931981E1
:10037A00088125960895BA93AA9326970E945F0545
:10038A0010E0AC85BD85E0E0F0E0ED93FC93EA89EE
:10039A00FB893196EA8BFB8B3197E4912E2FE03063
:1003AA0009F415C1E12FE03039F4253211F411E0D6
:1003BA0002C00E944E030AC1E130A9F4253219F4A1
:1003CA000E944E0302C112E040E000E02D3211F417
:1003DA0001E0FCC02B3211F44BE2F8C0203211F4D8
:1003EA0040E2F4C002C0E23039F450E013E02033B6
:1003FA0011F40068EBC003C0E33009F0E7C0203312
:10040A0010F02A3308F007C0AAE05A9F502DE22FB5
:10041A00E0535E0FDBC0E22FE33649F40E94550336
:10042A00E889F989A481AA930E945B03CEC0E337C5
:10043A0041F40E9455030E9461030E9428031E2F63
:10044A000AC0E03761F40E9455030E9461030E94CA
:10045A0034031E2F086002600F7730E034C0E436A0
:10046A0011F0E93611F4046002C0E53731F4E4E52D
:10047A00F0E0EE83FF8315E00CC0E83511F4086064
:10048A0003C0E83709F0A1C0EEE5F0E0EE83FF8390
:10049A0014E002FF14C00E9455030E946B03AB854F
:1004AA00AA233AF4EA85FB850E940405EA87FB87BA
:1004BA004DE2403011F01F5F01C00B7F04C00E9463
:1004CA0055030E946B0300FD11C0151778F407FF4E
:1004DA0008C002FF04C00B7F242F115001C020E383
:1004EA0001C020E20E944E035150EFCF312F01FF8D
:1004FA0017C03030A1F003FF06C0EE81FF812591BD
:10050A00EE83FF8305C0AE81BF812D91AE83BF8389
:10051A000E944E03503009F051503150EACF4BC07F
:10052A0020E3EE81FF810E944405E887F987EE8186
:10053A00FF813296EE83FF83E885F985AA85BB851C
:10054A00AE17BF0750F02F5FA885B985EA85FB85EE
:10055A00EA1BFB0BEA87FB87EFCF2A3328F003FF5E
:10056A0002C0295F01C0295D04FD1AC0213320F4AD
:10057A00A885B985119709F409C0531710F000FF2F
:10058A0001C013C020E207FF0BC020E3006102FF95
:10059A0007C00B7F4A930E945B03503009F0515009
:1005AA000E944E03503009F051503150A885B98548
:1005BA00129708F0B5CF00FF08C0503031F0515003
:1005CA00E0E2EA930E945B03F8CF10E0E0CEAC854C
:1005DA00BD850E9440050E94660564960895FF92B3
:1005EA00F82E26970E9461050E947303309719F42A
:1005FA00EFEFFFEF23C0DE0116960E9400058D0182
:10060A000E947303EE83FF83E0E0E887E987DE0157
:10061A001A960E9400050E944005FA93EA931A93DB
:10062A000A93E0E8F1E0FA93EA93DE011A96A3DE70
:10063A009F01AE81BF81E0E0EC93F9010E94680559
:10064A002A96FF900895BA93AA93A991B991EE2791
:10065A00FF276D91662311F03196FBCF0895BA9367
:10066A00AA93AA27BB27E991F9910590002011F0D6
:10067A001196FBCFFD0108950E940801A3E0B0E0A6
:10068A000C947A03A0E30E94F40081E28A95F1F7C0
:10069A0008952A93AD85BE85EF85F8890995089551
:1006AA00E889F9893497E88BF98B0895AD85BE8579
:1006BA00EF85F88909950895A889B98914960E9441
:1006CA004005EE83FF83AE81BF810895A889B98969
:1006DA0014960E944005EA87FB870895DE011C965E
:1006EA000E9400050E9440050895109639F08AEF8D
:1006FA0090E00197F1F7A8951197C9F70895552346
:10070A0042F4503811F4E0FF04C03196691F791F92
:10071A006BF050E8572711F45F93C8C05F3F31F080
:10072A00660F000C57956795752F08955F93002003
:10073A000AF0C8C0C1C050E8192E1522880F991FA7
:10074A009527550F879550E8072E0522660F771FC4
:10075A007527550F67950895689401C0E8945F93CB
:10076A00F2DF703818F07F3F08F4A0C056E1571B3B
:10077A00AAF4519558300EF4593030F0EFEFFFEFEC
:10078A006FEF7FE777F91AC077275523B9F0EE0F95
:10079A00FF1F661F771F5A95D1F710C07727583069
:1007AA0028F0EF2FF62F672F5850F9CF552331F045
:1007BA0076956795F795E7955A95D1F700200AF44B
:1007CA0022D15F910895689401C0E89430976040FF
:1007DA007040B1F0002426F0772312F4009413D16C
:1007EA00172E7EE1112032F07A95EE0FFF1F661F59
:1007FA00111CF9CFEF2FF62F612D5F938ADF5F91DE
:10080A0008954F93AF01FD01DA01AB01BC01CA01A2
:10081A00402D012C142E4F910895EA0FFB1F681FDB
:10082A000895E095F0956095EF5FFF4F6F4F08953B
:10083A005F9381DF903839F1703821F1572F591BB6
:10084A002BF112F4DEDFFACF583118F0AA27BB27B2
:10085A008827583028F0AB2FB82F88275850F9CF5F
:10086A00552329F08695B795A7955A95D9F7502D0E
:10087A00512572F0D2DF38F46795F795E7957395AD
:10088A0013F420C0BEDF45DF5F910895D8F7FBCF90
:10089A00EA1BFB0B680B51F010F40094C2DF6623CD
:1008AA0092F3EE0FFF1F661F7A95CBF7EE27FF270D
:1008BA00662777275F910895EFEFFFEF6FE77FEFE6
:1008CA005F910895EFEFFFEF6FE77FE75F9108957C
:1008DA005F9331DF703851F3903841F30124089463
:1008EA00791F23F41CF300203AF3ECCF0F921F93E5
:1008FA002F933F934F93112722279927689FA0018F
:10090A008F9F302D410D591F6B9F300D411D591F6F
:10091A008E9F27D0BF9F25D06A9F23D0BE9F1DD010
:10092A00AF9F1BD0AE9F110D291F391F491F591F99
:10093A00E32FF42F652F522F4F913F912F911F9143
:10094A000F9066232AF0550FEE1FFF1F661F02C085
:10095A0073954BF2D4DE5F910895100D211D391F56
:10096A0002C0200D311D491F591F08955F93E3DE10
:10097A00703821F411200AF49FCFA4CF903809F4DB
:10098A0095CF01240894970B1BF4D4F30020F3CFDE
:10099A00792F1F932F933F934F93112411272227C7
:1009AA0033274427552790E2AE17BF07860741072A
:1009BA0030F0AE1BBF0B860B410B089401C0889424
:1009CA00551F221F331F111CAA1FBB1F881F441F3C
:1009DA009A9551F7F901612D4F913F912F911F91EE
:1009EA00662332F0550FEE1FFF1F661F7A9543F2FA
:1009FA0086DE5F9108950024AF0DB01D0895F1952C
:100A0A00E195F0400895F09560957095E195FF4F56
:100A1A006F4F7F4F08956F2F660F660B762F0895DD
:100A2A008B2F880F880B982F08950024112490E1AA
:100A3A00AA0FBB1F001C111C0E1A1F0A18F40E0E57
:100A4A001F1E01C0A1609A9599F7FD01D001089572
:100A5A0004D0EBDF0EF4D3DF0895E894F7FF02C069
:100A6A00CEDF6894B7FF06C0A095B095119600F83E
:100A7A00039400FA0895ED91FC9111970895059059
:100A8A00F491E02D08957A936A93FA93EA9308957C
:100A9A00689401C0E89401D099DE182E862F612D42
:100AAA00192E972F712D1B2EBF2FF12D1A2EAE2F17
:100ABA00E12D08955A934A933A932A931A930A93E3
:100ACA0008955D814C813B812A81198108810895AD
:00000001FF
